{
  "_format": "hh-sol-artifact-1",
  "contractName": "Dynamic",
  "sourceName": "contracts/Dynamic.sol",
  "abi": [
    {
      "inputs": [],
      "stateMutability": "nonpayable",
      "type": "constructor"
    },
    {
      "anonymous": false,
      "inputs": [
        {
          "indexed": true,
          "internalType": "address",
          "name": "owner",
          "type": "address"
        },
        {
          "indexed": true,
          "internalType": "address",
          "name": "approved",
          "type": "address"
        },
        {
          "indexed": true,
          "internalType": "uint256",
          "name": "tokenId",
          "type": "uint256"
        }
      ],
      "name": "Approval",
      "type": "event"
    },
    {
      "anonymous": false,
      "inputs": [
        {
          "indexed": true,
          "internalType": "address",
          "name": "owner",
          "type": "address"
        },
        {
          "indexed": true,
          "internalType": "address",
          "name": "operator",
          "type": "address"
        },
        {
          "indexed": false,
          "internalType": "bool",
          "name": "approved",
          "type": "bool"
        }
      ],
      "name": "ApprovalForAll",
      "type": "event"
    },
    {
      "anonymous": false,
      "inputs": [
        {
          "indexed": true,
          "internalType": "address",
          "name": "previousOwner",
          "type": "address"
        },
        {
          "indexed": true,
          "internalType": "address",
          "name": "newOwner",
          "type": "address"
        }
      ],
      "name": "OwnershipTransferred",
      "type": "event"
    },
    {
      "anonymous": false,
      "inputs": [
        {
          "indexed": true,
          "internalType": "address",
          "name": "from",
          "type": "address"
        },
        {
          "indexed": true,
          "internalType": "address",
          "name": "to",
          "type": "address"
        },
        {
          "indexed": true,
          "internalType": "uint256",
          "name": "tokenId",
          "type": "uint256"
        }
      ],
      "name": "Transfer",
      "type": "event"
    },
    {
      "inputs": [
        {
          "internalType": "address",
          "name": "to",
          "type": "address"
        },
        {
          "internalType": "uint256",
          "name": "tokenId",
          "type": "uint256"
        }
      ],
      "name": "approve",
      "outputs": [],
      "stateMutability": "nonpayable",
      "type": "function"
    },
    {
      "inputs": [
        {
          "internalType": "address",
          "name": "owner",
          "type": "address"
        }
      ],
      "name": "balanceOf",
      "outputs": [
        {
          "internalType": "uint256",
          "name": "",
          "type": "uint256"
        }
      ],
      "stateMutability": "view",
      "type": "function"
    },
    {
      "inputs": [
        {
          "internalType": "uint256",
          "name": "tokenId",
          "type": "uint256"
        }
      ],
      "name": "buyToken",
      "outputs": [],
      "stateMutability": "payable",
      "type": "function"
    },
    {
      "inputs": [],
      "name": "getAllMarketTokens",
      "outputs": [
        {
          "components": [
            {
              "internalType": "uint256",
              "name": "tokenId",
              "type": "uint256"
            },
            {
              "internalType": "uint256",
              "name": "price",
              "type": "uint256"
            },
            {
              "internalType": "address payable",
              "name": "owner",
              "type": "address"
            },
            {
              "internalType": "address payable",
              "name": "seller",
              "type": "address"
            },
            {
              "internalType": "bool",
              "name": "sold",
              "type": "bool"
            }
          ],
          "internalType": "struct Dynamic.Token[]",
          "name": "",
          "type": "tuple[]"
        }
      ],
      "stateMutability": "view",
      "type": "function"
    },
    {
      "inputs": [
        {
          "internalType": "uint256",
          "name": "tokenId",
          "type": "uint256"
        }
      ],
      "name": "getApproved",
      "outputs": [
        {
          "internalType": "address",
          "name": "",
          "type": "address"
        }
      ],
      "stateMutability": "view",
      "type": "function"
    },
    {
      "inputs": [],
      "name": "getMyTokens",
      "outputs": [
        {
          "internalType": "uint256[]",
          "name": "",
          "type": "uint256[]"
        }
      ],
      "stateMutability": "view",
      "type": "function"
    },
    {
      "inputs": [
        {
          "internalType": "address",
          "name": "owner",
          "type": "address"
        },
        {
          "internalType": "address",
          "name": "operator",
          "type": "address"
        }
      ],
      "name": "isApprovedForAll",
      "outputs": [
        {
          "internalType": "bool",
          "name": "",
          "type": "bool"
        }
      ],
      "stateMutability": "view",
      "type": "function"
    },
    {
      "inputs": [
        {
          "internalType": "string",
          "name": "tokenURI",
          "type": "string"
        },
        {
          "internalType": "uint256",
          "name": "price",
          "type": "uint256"
        }
      ],
      "name": "mintToken",
      "outputs": [],
      "stateMutability": "nonpayable",
      "type": "function"
    },
    {
      "inputs": [],
      "name": "name",
      "outputs": [
        {
          "internalType": "string",
          "name": "",
          "type": "string"
        }
      ],
      "stateMutability": "view",
      "type": "function"
    },
    {
      "inputs": [],
      "name": "owner",
      "outputs": [
        {
          "internalType": "address",
          "name": "",
          "type": "address"
        }
      ],
      "stateMutability": "view",
      "type": "function"
    },
    {
      "inputs": [
        {
          "internalType": "uint256",
          "name": "tokenId",
          "type": "uint256"
        }
      ],
      "name": "ownerOf",
      "outputs": [
        {
          "internalType": "address",
          "name": "",
          "type": "address"
        }
      ],
      "stateMutability": "view",
      "type": "function"
    },
    {
      "inputs": [],
      "name": "renounceOwnership",
      "outputs": [],
      "stateMutability": "nonpayable",
      "type": "function"
    },
    {
      "inputs": [
        {
          "internalType": "address",
          "name": "from",
          "type": "address"
        },
        {
          "internalType": "address",
          "name": "to",
          "type": "address"
        },
        {
          "internalType": "uint256",
          "name": "tokenId",
          "type": "uint256"
        }
      ],
      "name": "safeTransferFrom",
      "outputs": [],
      "stateMutability": "nonpayable",
      "type": "function"
    },
    {
      "inputs": [
        {
          "internalType": "address",
          "name": "from",
          "type": "address"
        },
        {
          "internalType": "address",
          "name": "to",
          "type": "address"
        },
        {
          "internalType": "uint256",
          "name": "tokenId",
          "type": "uint256"
        },
        {
          "internalType": "bytes",
          "name": "data",
          "type": "bytes"
        }
      ],
      "name": "safeTransferFrom",
      "outputs": [],
      "stateMutability": "nonpayable",
      "type": "function"
    },
    {
      "inputs": [
        {
          "internalType": "uint256",
          "name": "tokenId",
          "type": "uint256"
        },
        {
          "internalType": "uint256",
          "name": "price",
          "type": "uint256"
        }
      ],
      "name": "sellToken",
      "outputs": [],
      "stateMutability": "nonpayable",
      "type": "function"
    },
    {
      "inputs": [
        {
          "internalType": "address",
          "name": "operator",
          "type": "address"
        },
        {
          "internalType": "bool",
          "name": "approved",
          "type": "bool"
        }
      ],
      "name": "setApprovalForAll",
      "outputs": [],
      "stateMutability": "nonpayable",
      "type": "function"
    },
    {
      "inputs": [
        {
          "internalType": "bytes4",
          "name": "interfaceId",
          "type": "bytes4"
        }
      ],
      "name": "supportsInterface",
      "outputs": [
        {
          "internalType": "bool",
          "name": "",
          "type": "bool"
        }
      ],
      "stateMutability": "view",
      "type": "function"
    },
    {
      "inputs": [],
      "name": "symbol",
      "outputs": [
        {
          "internalType": "string",
          "name": "",
          "type": "string"
        }
      ],
      "stateMutability": "view",
      "type": "function"
    },
    {
      "inputs": [
        {
          "internalType": "uint256",
          "name": "tokenId",
          "type": "uint256"
        }
      ],
      "name": "tokenInMarket",
      "outputs": [
        {
          "internalType": "bool",
          "name": "",
          "type": "bool"
        }
      ],
      "stateMutability": "view",
      "type": "function"
    },
    {
      "inputs": [
        {
          "internalType": "uint256",
          "name": "tokenId",
          "type": "uint256"
        }
      ],
      "name": "tokenURI",
      "outputs": [
        {
          "internalType": "string",
          "name": "",
          "type": "string"
        }
      ],
      "stateMutability": "view",
      "type": "function"
    },
    {
      "inputs": [
        {
          "internalType": "uint256",
          "name": "",
          "type": "uint256"
        }
      ],
      "name": "tokens",
      "outputs": [
        {
          "internalType": "uint256",
          "name": "tokenId",
          "type": "uint256"
        },
        {
          "internalType": "uint256",
          "name": "price",
          "type": "uint256"
        },
        {
          "internalType": "address payable",
          "name": "owner",
          "type": "address"
        },
        {
          "internalType": "address payable",
          "name": "seller",
          "type": "address"
        },
        {
          "internalType": "bool",
          "name": "sold",
          "type": "bool"
        }
      ],
      "stateMutability": "view",
      "type": "function"
    },
    {
      "inputs": [],
      "name": "tokensSoldCount",
      "outputs": [
        {
          "internalType": "uint256",
          "name": "_value",
          "type": "uint256"
        }
      ],
      "stateMutability": "view",
      "type": "function"
    },
    {
      "inputs": [],
      "name": "tokensUnsoldCount",
      "outputs": [
        {
          "internalType": "uint256",
          "name": "_value",
          "type": "uint256"
        }
      ],
      "stateMutability": "view",
      "type": "function"
    },
    {
      "inputs": [
        {
          "internalType": "address",
          "name": "from",
          "type": "address"
        },
        {
          "internalType": "address",
          "name": "to",
          "type": "address"
        },
        {
          "internalType": "uint256",
          "name": "tokenId",
          "type": "uint256"
        }
      ],
      "name": "transferFrom",
      "outputs": [],
      "stateMutability": "nonpayable",
      "type": "function"
    },
    {
      "inputs": [
        {
          "internalType": "address",
          "name": "newOwner",
          "type": "address"
        }
      ],
      "name": "transferOwnership",
      "outputs": [],
      "stateMutability": "nonpayable",
      "type": "function"
    },
    {
      "stateMutability": "payable",
      "type": "receive"
    }
  ],
  "bytecode": "0x60806040523480156200001157600080fd5b506040518060400160405280600781526020017f44796e616d6963000000000000000000000000000000000000000000000000008152506040518060400160405280600381526020017f44594e0000000000000000000000000000000000000000000000000000000000815250816000908051906020019062000096929190620001a6565b508060019080519060200190620000af929190620001a6565b505050620000d2620000c6620000d860201b60201c565b620000e060201b60201c565b620002bb565b600033905090565b6000600760009054906101000a900473ffffffffffffffffffffffffffffffffffffffff16905081600760006101000a81548173ffffffffffffffffffffffffffffffffffffffff021916908373ffffffffffffffffffffffffffffffffffffffff1602179055508173ffffffffffffffffffffffffffffffffffffffff168173ffffffffffffffffffffffffffffffffffffffff167f8be0079c531659141344cd1fd0a4f28419497f9722a3daafe3b4186f6b6457e060405160405180910390a35050565b828054620001b49062000256565b90600052602060002090601f016020900481019282620001d8576000855562000224565b82601f10620001f357805160ff191683800117855562000224565b8280016001018555821562000224579182015b828111156200022357825182559160200191906001019062000206565b5b50905062000233919062000237565b5090565b5b808211156200025257600081600090555060010162000238565b5090565b600060028204905060018216806200026f57607f821691505b602082108114156200028657620002856200028c565b5b50919050565b7f4e487b7100000000000000000000000000000000000000000000000000000000600052602260045260246000fd5b613d6f80620002cb6000396000f3fe60806040526004361061016a5760003560e01c8063715018a6116100d1578063c046372c1161008a578063dfed6c0411610064578063dfed6c041461054e578063e985e9c514610579578063f2fde38b146105b6578063f9a6f100146105df57610171565b8063c046372c146104bd578063c87b56dd146104e6578063d865dc4f1461052357610171565b8063715018a6146103c15780638da5cb5b146103d857806395d89b4114610403578063a22cb4651461042e578063b67c19e614610457578063b88d4fde1461049457610171565b80632d296bf1116101235780632d296bf11461029657806342842e0e146102b25780634f64b2be146102db5780635b3b136a1461031c5780636352211e1461034757806370a082311461038457610171565b806301ffc9a71461017657806306fdde03146101b3578063081812fc146101de578063095ea7b31461021b5780631897bcf31461024457806323b872dd1461026d57610171565b3661017157005b600080fd5b34801561018257600080fd5b5061019d60048036038101906101989190612a3c565b61060a565b6040516101aa9190613113565b60405180910390f35b3480156101bf57600080fd5b506101c86106ec565b6040516101d5919061312e565b60405180910390f35b3480156101ea57600080fd5b5061020560048036038101906102009190612ae6565b61077e565b6040516102129190613068565b60405180910390f35b34801561022757600080fd5b50610242600480360381019061023d9190612a00565b6107c4565b005b34801561025057600080fd5b5061026b60048036038101906102669190612b0f565b6108dc565b005b34801561027957600080fd5b50610294600480360381019061028f91906128fa565b610a99565b005b6102b060048036038101906102ab9190612ae6565b610af9565b005b3480156102be57600080fd5b506102d960048036038101906102d491906128fa565b610d72565b005b3480156102e757600080fd5b5061030260048036038101906102fd9190612ae6565b610d92565b6040516103139594939291906133cb565b60405180910390f35b34801561032857600080fd5b50610331610e15565b60405161033e91906130f1565b60405180910390f35b34801561035357600080fd5b5061036e60048036038101906103699190612ae6565b610f5a565b60405161037b9190613068565b60405180910390f35b34801561039057600080fd5b506103ab60048036038101906103a69190612895565b61100c565b6040516103b891906133b0565b60405180910390f35b3480156103cd57600080fd5b506103d66110c4565b005b3480156103e457600080fd5b506103ed6110d8565b6040516103fa9190613068565b60405180910390f35b34801561040f57600080fd5b50610418611102565b604051610425919061312e565b60405180910390f35b34801561043a57600080fd5b50610455600480360381019061045091906129c4565b611194565b005b34801561046357600080fd5b5061047e60048036038101906104799190612ae6565b6111aa565b60405161048b9190613113565b60405180910390f35b3480156104a057600080fd5b506104bb60048036038101906104b69190612949565b611220565b005b3480156104c957600080fd5b506104e460048036038101906104df9190612a8e565b611282565b005b3480156104f257600080fd5b5061050d60048036038101906105089190612ae6565b611345565b60405161051a919061312e565b60405180910390f35b34801561052f57600080fd5b50610538611458565b60405161054591906133b0565b60405180910390f35b34801561055a57600080fd5b50610563611464565b60405161057091906133b0565b60405180910390f35b34801561058557600080fd5b506105a0600480360381019061059b91906128be565b611470565b6040516105ad9190613113565b60405180910390f35b3480156105c257600080fd5b506105dd60048036038101906105d89190612895565b611504565b005b3480156105eb57600080fd5b506105f4611588565b60405161060191906130cf565b60405180910390f35b60007f80ac58cd000000000000000000000000000000000000000000000000000000007bffffffffffffffffffffffffffffffffffffffffffffffffffffffff1916827bffffffffffffffffffffffffffffffffffffffffffffffffffffffff191614806106d557507f5b5e139f000000000000000000000000000000000000000000000000000000007bffffffffffffffffffffffffffffffffffffffffffffffffffffffff1916827bffffffffffffffffffffffffffffffffffffffffffffffffffffffff1916145b806106e557506106e4826117b4565b5b9050919050565b6060600080546106fb906136ac565b80601f0160208091040260200160405190810160405280929190818152602001828054610727906136ac565b80156107745780601f1061074957610100808354040283529160200191610774565b820191906000526020600020905b81548152906001019060200180831161075757829003601f168201915b5050505050905090565b60006107898261181e565b6004600083815260200190815260200160002060009054906101000a900473ffffffffffffffffffffffffffffffffffffffff169050919050565b60006107cf82610f5a565b90508073ffffffffffffffffffffffffffffffffffffffff168373ffffffffffffffffffffffffffffffffffffffff161415610840576040517f08c379a000000000000000000000000000000000000000000000000000000000815260040161083790613370565b60405180910390fd5b8073ffffffffffffffffffffffffffffffffffffffff1661085f611869565b73ffffffffffffffffffffffffffffffffffffffff16148061088e575061088d81610888611869565b611470565b5b6108cd576040517f08c379a00000000000000000000000000000000000000000000000000000000081526004016108c4906132d0565b60405180910390fd5b6108d78383611871565b505050565b3373ffffffffffffffffffffffffffffffffffffffff166108fc83610f5a565b73ffffffffffffffffffffffffffffffffffffffff1614610952576040517f08c379a0000000000000000000000000000000000000000000000000000000008152600401610949906131f0565b60405180910390fd5b6040518060a001604052808381526020018281526020013073ffffffffffffffffffffffffffffffffffffffff1681526020013373ffffffffffffffffffffffffffffffffffffffff16815260200160001515815250600b6000848152602001908152602001600020600082015181600001556020820151816001015560408201518160020160006101000a81548173ffffffffffffffffffffffffffffffffffffffff021916908373ffffffffffffffffffffffffffffffffffffffff16021790555060608201518160030160006101000a81548173ffffffffffffffffffffffffffffffffffffffff021916908373ffffffffffffffffffffffffffffffffffffffff16021790555060808201518160030160146101000a81548160ff021916908315150217905550905050610a8a600961192a565b610a95333084611940565b5050565b610aaa610aa4611869565b82611ba7565b610ae9576040517f08c379a0000000000000000000000000000000000000000000000000000000008152600401610ae090613390565b60405180910390fd5b610af4838383611940565b505050565b6000600b6000838152602001908152602001600020600101549050600b600083815260200190815260200160002060030160009054906101000a900473ffffffffffffffffffffffffffffffffffffffff1673ffffffffffffffffffffffffffffffffffffffff163373ffffffffffffffffffffffffffffffffffffffff161415610bb9576040517f08c379a0000000000000000000000000000000000000000000000000000000008152600401610bb090613250565b60405180910390fd5b80341015610bfc576040517f08c379a0000000000000000000000000000000000000000000000000000000008152600401610bf390613230565b60405180910390fd5b6000600b600084815260200190815260200160002060030160009054906101000a900473ffffffffffffffffffffffffffffffffffffffff1690506001600b600085815260200190815260200160002060030160146101000a81548160ff02191690831515021790555033600b600085815260200190815260200160002060020160006101000a81548173ffffffffffffffffffffffffffffffffffffffff021916908373ffffffffffffffffffffffffffffffffffffffff1602179055506000600b600085815260200190815260200160002060030160006101000a81548173ffffffffffffffffffffffffffffffffffffffff021916908373ffffffffffffffffffffffffffffffffffffffff160217905550610d1b600a61192a565b610d26303385611940565b8073ffffffffffffffffffffffffffffffffffffffff166108fc839081150290604051600060405180830381858888f19350505050158015610d6c573d6000803e3d6000fd5b50505050565b610d8d83838360405180602001604052806000815250611220565b505050565b600b6020528060005260406000206000915090508060000154908060010154908060020160009054906101000a900473ffffffffffffffffffffffffffffffffffffffff16908060030160009054906101000a900473ffffffffffffffffffffffffffffffffffffffff16908060030160149054906101000a900460ff16905085565b6060600080610e246008611c3c565b90506000610e313361100c565b67ffffffffffffffff811115610e70577f4e487b7100000000000000000000000000000000000000000000000000000000600052604160045260246000fd5b604051908082528060200260200182016040528015610e9e5781602001602082028036833780820191505090505b50905060005b82811015610f50573373ffffffffffffffffffffffffffffffffffffffff16610ecc82610f5a565b73ffffffffffffffffffffffffffffffffffffffff161415610f3d5780828581518110610f22577f4e487b7100000000000000000000000000000000000000000000000000000000600052603260045260246000fd5b6020026020010181815250508380610f399061370f565b9450505b8080610f489061370f565b915050610ea4565b5080935050505090565b6000806002600084815260200190815260200160002060009054906101000a900473ffffffffffffffffffffffffffffffffffffffff169050600073ffffffffffffffffffffffffffffffffffffffff168173ffffffffffffffffffffffffffffffffffffffff161415611003576040517f08c379a0000000000000000000000000000000000000000000000000000000008152600401610ffa90613330565b60405180910390fd5b80915050919050565b60008073ffffffffffffffffffffffffffffffffffffffff168273ffffffffffffffffffffffffffffffffffffffff16141561107d576040517f08c379a000000000000000000000000000000000000000000000000000000000815260040161107490613270565b60405180910390fd5b600360008373ffffffffffffffffffffffffffffffffffffffff1673ffffffffffffffffffffffffffffffffffffffff168152602001908152602001600020549050919050565b6110cc611c4a565b6110d66000611cc8565b565b6000600760009054906101000a900473ffffffffffffffffffffffffffffffffffffffff16905090565b606060018054611111906136ac565b80601f016020809104026020016040519081016040528092919081815260200182805461113d906136ac565b801561118a5780601f1061115f5761010080835404028352916020019161118a565b820191906000526020600020905b81548152906001019060200180831161116d57829003601f168201915b5050505050905090565b6111a661119f611869565b8383611d8e565b5050565b60006111b582611efb565b6111f4576040517f08c379a00000000000000000000000000000000000000000000000000000000081526004016111eb90613350565b60405180910390fd5b600b600083815260200190815260200160002060030160149054906101000a900460ff16159050919050565b61123161122b611869565b83611ba7565b611270576040517f08c379a000000000000000000000000000000000000000000000000000000000815260040161126790613390565b60405180910390fd5b61127c84848484611f67565b50505050565b600081116112c5576040517f08c379a00000000000000000000000000000000000000000000000000000000081526004016112bc906132b0565b60405180910390fd5b60006112d16008611c3c565b90506112dd600861192a565b6112e73382611fc3565b6113358185858080601f016020809104026020016040519081016040528093929190818152602001838380828437600081840152601f19601f82011690508083019250505050505050611fe1565b61133f81836108dc565b50505050565b60606113508261181e565b6000600660008481526020019081526020016000208054611370906136ac565b80601f016020809104026020016040519081016040528092919081815260200182805461139c906136ac565b80156113e95780601f106113be576101008083540402835291602001916113e9565b820191906000526020600020905b8154815290600101906020018083116113cc57829003601f168201915b5050505050905060006113fa612055565b9050600081511415611410578192505050611453565b60008251111561144557808260405160200161142d929190613044565b60405160208183030381529060405292505050611453565b61144e8461206c565b925050505b919050565b600a8060000154905081565b60098060000154905081565b6000600560008473ffffffffffffffffffffffffffffffffffffffff1673ffffffffffffffffffffffffffffffffffffffff16815260200190815260200160002060008373ffffffffffffffffffffffffffffffffffffffff1673ffffffffffffffffffffffffffffffffffffffff16815260200190815260200160002060009054906101000a900460ff16905092915050565b61150c611c4a565b600073ffffffffffffffffffffffffffffffffffffffff168173ffffffffffffffffffffffffffffffffffffffff16141561157c576040517f08c379a000000000000000000000000000000000000000000000000000000000815260040161157390613170565b60405180910390fd5b61158581611cc8565b50565b60606000611596600a611c3c565b6115a06009611c3c565b6115aa91906135b0565b90506000808267ffffffffffffffff8111156115ef577f4e487b7100000000000000000000000000000000000000000000000000000000600052604160045260246000fd5b60405190808252806020026020018201604052801561162857816020015b61161561267a565b81526020019060019003908161160d5790505b50905060005b6116386008611c3c565b8110156117aa57611648816111aa565b1561179957600b60008281526020019081526020016000206040518060a001604052908160008201548152602001600182015481526020016002820160009054906101000a900473ffffffffffffffffffffffffffffffffffffffff1673ffffffffffffffffffffffffffffffffffffffff1673ffffffffffffffffffffffffffffffffffffffff1681526020016003820160009054906101000a900473ffffffffffffffffffffffffffffffffffffffff1673ffffffffffffffffffffffffffffffffffffffff1673ffffffffffffffffffffffffffffffffffffffff1681526020016003820160149054906101000a900460ff16151515158152505082848151811061177f577f4e487b7100000000000000000000000000000000000000000000000000000000600052603260045260246000fd5b602002602001018190525082806117959061370f565b9350505b806117a39061370f565b905061162e565b5080935050505090565b60007f01ffc9a7000000000000000000000000000000000000000000000000000000007bffffffffffffffffffffffffffffffffffffffffffffffffffffffff1916827bffffffffffffffffffffffffffffffffffffffffffffffffffffffff1916149050919050565b61182781611efb565b611866576040517f08c379a000000000000000000000000000000000000000000000000000000000815260040161185d90613330565b60405180910390fd5b50565b600033905090565b816004600083815260200190815260200160002060006101000a81548173ffffffffffffffffffffffffffffffffffffffff021916908373ffffffffffffffffffffffffffffffffffffffff160217905550808273ffffffffffffffffffffffffffffffffffffffff166118e483610f5a565b73ffffffffffffffffffffffffffffffffffffffff167f8c5be1e5ebec7d5bd14f71427d1e84f3dd0314c0f7b2291e5b200ac8c7c3b92560405160405180910390a45050565b6001816000016000828254019250508190555050565b8273ffffffffffffffffffffffffffffffffffffffff1661196082610f5a565b73ffffffffffffffffffffffffffffffffffffffff16146119b6576040517f08c379a00000000000000000000000000000000000000000000000000000000081526004016119ad90613190565b60405180910390fd5b600073ffffffffffffffffffffffffffffffffffffffff168273ffffffffffffffffffffffffffffffffffffffff161415611a26576040517f08c379a0000000000000000000000000000000000000000000000000000000008152600401611a1d906131d0565b60405180910390fd5b611a318383836120d4565b611a3c600082611871565b6001600360008573ffffffffffffffffffffffffffffffffffffffff1673ffffffffffffffffffffffffffffffffffffffff1681526020019081526020016000206000828254611a8c91906135b0565b925050819055506001600360008473ffffffffffffffffffffffffffffffffffffffff1673ffffffffffffffffffffffffffffffffffffffff1681526020019081526020016000206000828254611ae39190613529565b92505081905550816002600083815260200190815260200160002060006101000a81548173ffffffffffffffffffffffffffffffffffffffff021916908373ffffffffffffffffffffffffffffffffffffffff160217905550808273ffffffffffffffffffffffffffffffffffffffff168473ffffffffffffffffffffffffffffffffffffffff167fddf252ad1be2c89b69c2b068fc378daa952ba7f163c4a11628f55a4df523b3ef60405160405180910390a4611ba28383836120d9565b505050565b600080611bb383610f5a565b90508073ffffffffffffffffffffffffffffffffffffffff168473ffffffffffffffffffffffffffffffffffffffff161480611bf55750611bf48185611470565b5b80611c3357508373ffffffffffffffffffffffffffffffffffffffff16611c1b8461077e565b73ffffffffffffffffffffffffffffffffffffffff16145b91505092915050565b600081600001549050919050565b611c52611869565b73ffffffffffffffffffffffffffffffffffffffff16611c706110d8565b73ffffffffffffffffffffffffffffffffffffffff1614611cc6576040517f08c379a0000000000000000000000000000000000000000000000000000000008152600401611cbd90613310565b60405180910390fd5b565b6000600760009054906101000a900473ffffffffffffffffffffffffffffffffffffffff16905081600760006101000a81548173ffffffffffffffffffffffffffffffffffffffff021916908373ffffffffffffffffffffffffffffffffffffffff1602179055508173ffffffffffffffffffffffffffffffffffffffff168173ffffffffffffffffffffffffffffffffffffffff167f8be0079c531659141344cd1fd0a4f28419497f9722a3daafe3b4186f6b6457e060405160405180910390a35050565b8173ffffffffffffffffffffffffffffffffffffffff168373ffffffffffffffffffffffffffffffffffffffff161415611dfd576040517f08c379a0000000000000000000000000000000000000000000000000000000008152600401611df490613210565b60405180910390fd5b80600560008573ffffffffffffffffffffffffffffffffffffffff1673ffffffffffffffffffffffffffffffffffffffff16815260200190815260200160002060008473ffffffffffffffffffffffffffffffffffffffff1673ffffffffffffffffffffffffffffffffffffffff16815260200190815260200160002060006101000a81548160ff0219169083151502179055508173ffffffffffffffffffffffffffffffffffffffff168373ffffffffffffffffffffffffffffffffffffffff167f17307eab39ab6107e8899845ad3d59bd9653f200f220920489ca2b5937696c3183604051611eee9190613113565b60405180910390a3505050565b60008073ffffffffffffffffffffffffffffffffffffffff166002600084815260200190815260200160002060009054906101000a900473ffffffffffffffffffffffffffffffffffffffff1673ffffffffffffffffffffffffffffffffffffffff1614159050919050565b611f72848484611940565b611f7e848484846120de565b611fbd576040517f08c379a0000000000000000000000000000000000000000000000000000000008152600401611fb490613150565b60405180910390fd5b50505050565b611fdd828260405180602001604052806000815250612275565b5050565b611fea82611efb565b612029576040517f08c379a000000000000000000000000000000000000000000000000000000000815260040161202090613290565b60405180910390fd5b806006600084815260200190815260200160002090805190602001906120509291906126d7565b505050565b606060405180602001604052806000815250905090565b60606120778261181e565b6000612081612055565b905060008151116120a157604051806020016040528060008152506120cc565b806120ab846122d0565b6040516020016120bc929190613044565b6040516020818303038152906040525b915050919050565b505050565b505050565b60006120ff8473ffffffffffffffffffffffffffffffffffffffff1661247d565b15612268578373ffffffffffffffffffffffffffffffffffffffff1663150b7a02612128611869565b8786866040518563ffffffff1660e01b815260040161214a9493929190613083565b602060405180830381600087803b15801561216457600080fd5b505af192505050801561219557506040513d601f19601f820116820180604052508101906121929190612a65565b60015b612218573d80600081146121c5576040519150601f19603f3d011682016040523d82523d6000602084013e6121ca565b606091505b50600081511415612210576040517f08c379a000000000000000000000000000000000000000000000000000000000815260040161220790613150565b60405180910390fd5b805181602001fd5b63150b7a0260e01b7bffffffffffffffffffffffffffffffffffffffffffffffffffffffff1916817bffffffffffffffffffffffffffffffffffffffffffffffffffffffff19161491505061226d565b600190505b949350505050565b61227f83836124a0565b61228c60008484846120de565b6122cb576040517f08c379a00000000000000000000000000000000000000000000000000000000081526004016122c290613150565b60405180910390fd5b505050565b60606000821415612318576040518060400160405280600181526020017f30000000000000000000000000000000000000000000000000000000000000008152509050612478565b600082905060005b6000821461234a5780806123339061370f565b915050600a82612343919061357f565b9150612320565b60008167ffffffffffffffff81111561238c577f4e487b7100000000000000000000000000000000000000000000000000000000600052604160045260246000fd5b6040519080825280601f01601f1916602001820160405280156123be5781602001600182028036833780820191505090505b5090505b60008514612471576001826123d791906135b0565b9150600a856123e69190613758565b60306123f29190613529565b60f81b81838151811061242e577f4e487b7100000000000000000000000000000000000000000000000000000000600052603260045260246000fd5b60200101907effffffffffffffffffffffffffffffffffffffffffffffffffffffffffffff1916908160001a905350600a8561246a919061357f565b94506123c2565b8093505050505b919050565b6000808273ffffffffffffffffffffffffffffffffffffffff163b119050919050565b600073ffffffffffffffffffffffffffffffffffffffff168273ffffffffffffffffffffffffffffffffffffffff161415612510576040517f08c379a0000000000000000000000000000000000000000000000000000000008152600401612507906132f0565b60405180910390fd5b61251981611efb565b15612559576040517f08c379a0000000000000000000000000000000000000000000000000000000008152600401612550906131b0565b60405180910390fd5b612565600083836120d4565b6001600360008473ffffffffffffffffffffffffffffffffffffffff1673ffffffffffffffffffffffffffffffffffffffff16815260200190815260200160002060008282546125b59190613529565b92505081905550816002600083815260200190815260200160002060006101000a81548173ffffffffffffffffffffffffffffffffffffffff021916908373ffffffffffffffffffffffffffffffffffffffff160217905550808273ffffffffffffffffffffffffffffffffffffffff16600073ffffffffffffffffffffffffffffffffffffffff167fddf252ad1be2c89b69c2b068fc378daa952ba7f163c4a11628f55a4df523b3ef60405160405180910390a4612676600083836120d9565b5050565b6040518060a001604052806000815260200160008152602001600073ffffffffffffffffffffffffffffffffffffffff168152602001600073ffffffffffffffffffffffffffffffffffffffff1681526020016000151581525090565b8280546126e3906136ac565b90600052602060002090601f016020900481019282612705576000855561274c565b82601f1061271e57805160ff191683800117855561274c565b8280016001018555821561274c579182015b8281111561274b578251825591602001919060010190612730565b5b509050612759919061275d565b5090565b5b8082111561277657600081600090555060010161275e565b5090565b600061278d61278884613443565b61341e565b9050828152602081018484840111156127a557600080fd5b6127b084828561366a565b509392505050565b6000813590506127c781613cdd565b92915050565b6000813590506127dc81613cf4565b92915050565b6000813590506127f181613d0b565b92915050565b60008151905061280681613d0b565b92915050565b600082601f83011261281d57600080fd5b813561282d84826020860161277a565b91505092915050565b60008083601f84011261284857600080fd5b8235905067ffffffffffffffff81111561286157600080fd5b60208301915083600182028301111561287957600080fd5b9250929050565b60008135905061288f81613d22565b92915050565b6000602082840312156128a757600080fd5b60006128b5848285016127b8565b91505092915050565b600080604083850312156128d157600080fd5b60006128df858286016127b8565b92505060206128f0858286016127b8565b9150509250929050565b60008060006060848603121561290f57600080fd5b600061291d868287016127b8565b935050602061292e868287016127b8565b925050604061293f86828701612880565b9150509250925092565b6000806000806080858703121561295f57600080fd5b600061296d878288016127b8565b945050602061297e878288016127b8565b935050604061298f87828801612880565b925050606085013567ffffffffffffffff8111156129ac57600080fd5b6129b88782880161280c565b91505092959194509250565b600080604083850312156129d757600080fd5b60006129e5858286016127b8565b92505060206129f6858286016127cd565b9150509250929050565b60008060408385031215612a1357600080fd5b6000612a21858286016127b8565b9250506020612a3285828601612880565b9150509250929050565b600060208284031215612a4e57600080fd5b6000612a5c848285016127e2565b91505092915050565b600060208284031215612a7757600080fd5b6000612a85848285016127f7565b91505092915050565b600080600060408486031215612aa357600080fd5b600084013567ffffffffffffffff811115612abd57600080fd5b612ac986828701612836565b93509350506020612adc86828701612880565b9150509250925092565b600060208284031215612af857600080fd5b6000612b0684828501612880565b91505092915050565b60008060408385031215612b2257600080fd5b6000612b3085828601612880565b9250506020612b4185828601612880565b9150509250929050565b6000612b578383612fbe565b60a08301905092915050565b6000612b6f8383613026565b60208301905092915050565b612b84816135f6565b82525050565b612b93816135f6565b82525050565b612ba2816135e4565b82525050565b6000612bb382613494565b612bbd81856134da565b9350612bc883613474565b8060005b83811015612bf9578151612be08882612b4b565b9750612beb836134c0565b925050600181019050612bcc565b5085935050505092915050565b6000612c118261349f565b612c1b81856134eb565b9350612c2683613484565b8060005b83811015612c57578151612c3e8882612b63565b9750612c49836134cd565b925050600181019050612c2a565b5085935050505092915050565b612c6d81613608565b82525050565b612c7c81613608565b82525050565b6000612c8d826134aa565b612c9781856134fc565b9350612ca7818560208601613679565b612cb081613845565b840191505092915050565b6000612cc6826134b5565b612cd0818561350d565b9350612ce0818560208601613679565b612ce981613845565b840191505092915050565b6000612cff826134b5565b612d09818561351e565b9350612d19818560208601613679565b80840191505092915050565b6000612d3260328361350d565b9150612d3d82613856565b604082019050919050565b6000612d5560268361350d565b9150612d60826138a5565b604082019050919050565b6000612d7860258361350d565b9150612d83826138f4565b604082019050919050565b6000612d9b601c8361350d565b9150612da682613943565b602082019050919050565b6000612dbe60248361350d565b9150612dc98261396c565b604082019050919050565b6000612de160198361350d565b9150612dec826139bb565b602082019050919050565b6000612e0460198361350d565b9150612e0f826139e4565b602082019050919050565b6000612e27601c8361350d565b9150612e3282613a0d565b602082019050919050565b6000612e4a60238361350d565b9150612e5582613a36565b604082019050919050565b6000612e6d60298361350d565b9150612e7882613a85565b604082019050919050565b6000612e90602e8361350d565b9150612e9b82613ad4565b604082019050919050565b6000612eb360138361350d565b9150612ebe82613b23565b602082019050919050565b6000612ed6603e8361350d565b9150612ee182613b4c565b604082019050919050565b6000612ef960208361350d565b9150612f0482613b9b565b602082019050919050565b6000612f1c60208361350d565b9150612f2782613bc4565b602082019050919050565b6000612f3f60188361350d565b9150612f4a82613bed565b602082019050919050565b6000612f6260108361350d565b9150612f6d82613c16565b602082019050919050565b6000612f8560218361350d565b9150612f9082613c3f565b604082019050919050565b6000612fa8602e8361350d565b9150612fb382613c8e565b604082019050919050565b60a082016000820151612fd46000850182613026565b506020820151612fe76020850182613026565b506040820151612ffa6040850182612b7b565b50606082015161300d6060850182612b7b565b5060808201516130206080850182612c64565b50505050565b61302f81613660565b82525050565b61303e81613660565b82525050565b60006130508285612cf4565b915061305c8284612cf4565b91508190509392505050565b600060208201905061307d6000830184612b99565b92915050565b60006080820190506130986000830187612b99565b6130a56020830186612b99565b6130b26040830185613035565b81810360608301526130c48184612c82565b905095945050505050565b600060208201905081810360008301526130e98184612ba8565b905092915050565b6000602082019050818103600083015261310b8184612c06565b905092915050565b60006020820190506131286000830184612c73565b92915050565b600060208201905081810360008301526131488184612cbb565b905092915050565b6000602082019050818103600083015261316981612d25565b9050919050565b6000602082019050818103600083015261318981612d48565b9050919050565b600060208201905081810360008301526131a981612d6b565b9050919050565b600060208201905081810360008301526131c981612d8e565b9050919050565b600060208201905081810360008301526131e981612db1565b9050919050565b6000602082019050818103600083015261320981612dd4565b9050919050565b6000602082019050818103600083015261322981612df7565b9050919050565b6000602082019050818103600083015261324981612e1a565b9050919050565b6000602082019050818103600083015261326981612e3d565b9050919050565b6000602082019050818103600083015261328981612e60565b9050919050565b600060208201905081810360008301526132a981612e83565b9050919050565b600060208201905081810360008301526132c981612ea6565b9050919050565b600060208201905081810360008301526132e981612ec9565b9050919050565b6000602082019050818103600083015261330981612eec565b9050919050565b6000602082019050818103600083015261332981612f0f565b9050919050565b6000602082019050818103600083015261334981612f32565b9050919050565b6000602082019050818103600083015261336981612f55565b9050919050565b6000602082019050818103600083015261338981612f78565b9050919050565b600060208201905081810360008301526133a981612f9b565b9050919050565b60006020820190506133c56000830184613035565b92915050565b600060a0820190506133e06000830188613035565b6133ed6020830187613035565b6133fa6040830186612b8a565b6134076060830185612b8a565b6134146080830184612c73565b9695505050505050565b6000613428613439565b905061343482826136de565b919050565b6000604051905090565b600067ffffffffffffffff82111561345e5761345d613816565b5b61346782613845565b9050602081019050919050565b6000819050602082019050919050565b6000819050602082019050919050565b600081519050919050565b600081519050919050565b600081519050919050565b600081519050919050565b6000602082019050919050565b6000602082019050919050565b600082825260208201905092915050565b600082825260208201905092915050565b600082825260208201905092915050565b600082825260208201905092915050565b600081905092915050565b600061353482613660565b915061353f83613660565b9250827fffffffffffffffffffffffffffffffffffffffffffffffffffffffffffffffff0382111561357457613573613789565b5b828201905092915050565b600061358a82613660565b915061359583613660565b9250826135a5576135a46137b8565b5b828204905092915050565b60006135bb82613660565b91506135c683613660565b9250828210156135d9576135d8613789565b5b828203905092915050565b60006135ef82613640565b9050919050565b600061360182613640565b9050919050565b60008115159050919050565b60007fffffffff0000000000000000000000000000000000000000000000000000000082169050919050565b600073ffffffffffffffffffffffffffffffffffffffff82169050919050565b6000819050919050565b82818337600083830152505050565b60005b8381101561369757808201518184015260208101905061367c565b838111156136a6576000848401525b50505050565b600060028204905060018216806136c457607f821691505b602082108114156136d8576136d76137e7565b5b50919050565b6136e782613845565b810181811067ffffffffffffffff8211171561370657613705613816565b5b80604052505050565b600061371a82613660565b91507fffffffffffffffffffffffffffffffffffffffffffffffffffffffffffffffff82141561374d5761374c613789565b5b600182019050919050565b600061376382613660565b915061376e83613660565b92508261377e5761377d6137b8565b5b828206905092915050565b7f4e487b7100000000000000000000000000000000000000000000000000000000600052601160045260246000fd5b7f4e487b7100000000000000000000000000000000000000000000000000000000600052601260045260246000fd5b7f4e487b7100000000000000000000000000000000000000000000000000000000600052602260045260246000fd5b7f4e487b7100000000000000000000000000000000000000000000000000000000600052604160045260246000fd5b6000601f19601f8301169050919050565b7f4552433732313a207472616e7366657220746f206e6f6e20455243373231526560008201527f63656976657220696d706c656d656e7465720000000000000000000000000000602082015250565b7f4f776e61626c653a206e6577206f776e657220697320746865207a65726f206160008201527f6464726573730000000000000000000000000000000000000000000000000000602082015250565b7f4552433732313a207472616e736665722066726f6d20696e636f72726563742060008201527f6f776e6572000000000000000000000000000000000000000000000000000000602082015250565b7f4552433732313a20746f6b656e20616c7265616479206d696e74656400000000600082015250565b7f4552433732313a207472616e7366657220746f20746865207a65726f2061646460008201527f7265737300000000000000000000000000000000000000000000000000000000602082015250565b7f4f6e6c79206f776e65722063616e2073656c6c20746f6b656e00000000000000600082015250565b7f4552433732313a20617070726f766520746f2063616c6c657200000000000000600082015250565b7f496e76616c696420616d6f756e74206f662066756e64732073656e7400000000600082015250565b7f412073656c6c65722063616e6e6f7420627574207468696572206f776e20746f60008201527f6b656e0000000000000000000000000000000000000000000000000000000000602082015250565b7f4552433732313a2061646472657373207a65726f206973206e6f74206120766160008201527f6c6964206f776e65720000000000000000000000000000000000000000000000602082015250565b7f45524337323155524953746f726167653a2055524920736574206f66206e6f6e60008201527f6578697374656e7420746f6b656e000000000000000000000000000000000000602082015250565b7f746f6b656e2076616c756520746f6f206c6f7700000000000000000000000000600082015250565b7f4552433732313a20617070726f76652063616c6c6572206973206e6f7420746f60008201527f6b656e206f776e6572206e6f7220617070726f76656420666f7220616c6c0000602082015250565b7f4552433732313a206d696e7420746f20746865207a65726f2061646472657373600082015250565b7f4f776e61626c653a2063616c6c6572206973206e6f7420746865206f776e6572600082015250565b7f4552433732313a20696e76616c696420746f6b656e2049440000000000000000600082015250565b7f496e76616c696420746f6b656e20494400000000000000000000000000000000600082015250565b7f4552433732313a20617070726f76616c20746f2063757272656e74206f776e6560008201527f7200000000000000000000000000000000000000000000000000000000000000602082015250565b7f4552433732313a2063616c6c6572206973206e6f7420746f6b656e206f776e6560008201527f72206e6f7220617070726f766564000000000000000000000000000000000000602082015250565b613ce6816135e4565b8114613cf157600080fd5b50565b613cfd81613608565b8114613d0857600080fd5b50565b613d1481613614565b8114613d1f57600080fd5b50565b613d2b81613660565b8114613d3657600080fd5b5056fea2646970667358221220552116ec247af2b76eb90962a5fb159528e0bad290b7c8a3315967dae3361d6464736f6c63430008040033",
  "linkReferences": {},
  "deployedLinkReferences": {}
}